{
  "_format": "hh-sol-artifact-1",
  "contractName": "EventRegistry",
  "sourceName": "contracts/EventRegistry.sol",
  "abi": [
    {
      "inputs": [
        {
          "internalType": "address",
          "name": "initialOwner",
          "type": "address"
        }
      ],
      "stateMutability": "nonpayable",
      "type": "constructor"
    },
    {
      "inputs": [
        {
          "internalType": "uint256",
          "name": "eventId",
          "type": "uint256"
        }
      ],
      "name": "InvalidEventId",
      "type": "error"
    },
    {
      "inputs": [],
      "name": "NotPaymentHandler",
      "type": "error"
    },
    {
      "inputs": [
        {
          "internalType": "address",
          "name": "owner",
          "type": "address"
        }
      ],
      "name": "OwnableInvalidOwner",
      "type": "error"
    },
    {
      "inputs": [
        {
          "internalType": "address",
          "name": "account",
          "type": "address"
        }
      ],
      "name": "OwnableUnauthorizedAccount",
      "type": "error"
    },
    {
      "inputs": [
        {
          "internalType": "string",
          "name": "reason",
          "type": "string"
        }
      ],
      "name": "UpdateFailed",
      "type": "error"
    },
    {
      "anonymous": false,
      "inputs": [
        {
          "indexed": true,
          "internalType": "uint256",
          "name": "eventId",
          "type": "uint256"
        },
        {
          "indexed": false,
          "internalType": "string",
          "name": "name",
          "type": "string"
        },
        {
          "indexed": true,
          "internalType": "address",
          "name": "organizer",
          "type": "address"
        },
        {
          "indexed": false,
          "internalType": "uint256",
          "name": "price",
          "type": "uint256"
        },
        {
          "indexed": false,
          "internalType": "uint256",
          "name": "maxSupply",
          "type": "uint256"
        }
      ],
      "name": "EventCreated",
      "type": "event"
    },
    {
      "anonymous": false,
      "inputs": [
        {
          "indexed": true,
          "internalType": "uint256",
          "name": "eventId",
          "type": "uint256"
        },
        {
          "indexed": false,
          "internalType": "bool",
          "name": "isActive",
          "type": "bool"
        }
      ],
      "name": "EventUpdated",
      "type": "event"
    },
    {
      "anonymous": false,
      "inputs": [
        {
          "indexed": true,
          "internalType": "address",
          "name": "previousOwner",
          "type": "address"
        },
        {
          "indexed": true,
          "internalType": "address",
          "name": "newOwner",
          "type": "address"
        }
      ],
      "name": "OwnershipTransferred",
      "type": "event"
    },
    {
      "anonymous": false,
      "inputs": [
        {
          "indexed": true,
          "internalType": "uint256",
          "name": "eventId",
          "type": "uint256"
        },
        {
          "indexed": true,
          "internalType": "uint256",
          "name": "tokenId",
          "type": "uint256"
        },
        {
          "indexed": true,
          "internalType": "address",
          "name": "buyer",
          "type": "address"
        }
      ],
      "name": "SaleRecorded",
      "type": "event"
    },
    {
      "inputs": [
        {
          "internalType": "string",
          "name": "name",
          "type": "string"
        },
        {
          "internalType": "address",
          "name": "organizer",
          "type": "address"
        },
        {
          "internalType": "uint256",
          "name": "price",
          "type": "uint256"
        },
        {
          "internalType": "uint256",
          "name": "maxSupply",
          "type": "uint256"
        },
        {
          "internalType": "bool",
          "name": "isActive",
          "type": "bool"
        }
      ],
      "name": "createEvent",
      "outputs": [
        {
          "internalType": "uint256",
          "name": "",
          "type": "uint256"
        }
      ],
      "stateMutability": "nonpayable",
      "type": "function"
    },
    {
      "inputs": [
        {
          "internalType": "uint256",
          "name": "",
          "type": "uint256"
        }
      ],
      "name": "events",
      "outputs": [
        {
          "internalType": "uint256",
          "name": "id",
          "type": "uint256"
        },
        {
          "internalType": "string",
          "name": "name",
          "type": "string"
        },
        {
          "internalType": "address",
          "name": "organizer",
          "type": "address"
        },
        {
          "internalType": "uint256",
          "name": "price",
          "type": "uint256"
        },
        {
          "internalType": "uint256",
          "name": "maxSupply",
          "type": "uint256"
        },
        {
          "internalType": "uint256",
          "name": "ticketsSold",
          "type": "uint256"
        },
        {
          "internalType": "bool",
          "name": "isActive",
          "type": "bool"
        }
      ],
      "stateMutability": "view",
      "type": "function"
    },
    {
      "inputs": [],
      "name": "getCurrentEventId",
      "outputs": [
        {
          "internalType": "uint256",
          "name": "",
          "type": "uint256"
        }
      ],
      "stateMutability": "view",
      "type": "function"
    },
    {
      "inputs": [
        {
          "internalType": "uint256",
          "name": "eventId",
          "type": "uint256"
        }
      ],
      "name": "getEventDetails",
      "outputs": [
        {
          "internalType": "address",
          "name": "organizer",
          "type": "address"
        },
        {
          "internalType": "uint256",
          "name": "price",
          "type": "uint256"
        },
        {
          "internalType": "uint256",
          "name": "maxSupply",
          "type": "uint256"
        },
        {
          "internalType": "uint256",
          "name": "ticketsSold",
          "type": "uint256"
        },
        {
          "internalType": "bool",
          "name": "isActive",
          "type": "bool"
        },
        {
          "internalType": "string",
          "name": "name_",
          "type": "string"
        }
      ],
      "stateMutability": "view",
      "type": "function"
    },
    {
      "inputs": [
        {
          "internalType": "uint256",
          "name": "eventId",
          "type": "uint256"
        },
        {
          "internalType": "uint256",
          "name": "tokenId",
          "type": "uint256"
        }
      ],
      "name": "getTicketBuyer",
      "outputs": [
        {
          "internalType": "address",
          "name": "",
          "type": "address"
        }
      ],
      "stateMutability": "view",
      "type": "function"
    },
    {
      "inputs": [],
      "name": "owner",
      "outputs": [
        {
          "internalType": "address",
          "name": "",
          "type": "address"
        }
      ],
      "stateMutability": "view",
      "type": "function"
    },
    {
      "inputs": [
        {
          "internalType": "uint256",
          "name": "eventId",
          "type": "uint256"
        },
        {
          "internalType": "uint256",
          "name": "tokenId",
          "type": "uint256"
        },
        {
          "internalType": "address",
          "name": "buyer",
          "type": "address"
        }
      ],
      "name": "recordSale",
      "outputs": [],
      "stateMutability": "nonpayable",
      "type": "function"
    },
    {
      "inputs": [],
      "name": "renounceOwnership",
      "outputs": [],
      "stateMutability": "nonpayable",
      "type": "function"
    },
    {
      "inputs": [
        {
          "internalType": "uint256",
          "name": "eventId",
          "type": "uint256"
        },
        {
          "internalType": "bool",
          "name": "_isActive",
          "type": "bool"
        }
      ],
      "name": "setEventActiveStatus",
      "outputs": [],
      "stateMutability": "nonpayable",
      "type": "function"
    },
    {
      "inputs": [
        {
          "internalType": "address",
          "name": "newOwner",
          "type": "address"
        }
      ],
      "name": "transferOwnership",
      "outputs": [],
      "stateMutability": "nonpayable",
      "type": "function"
    }
  ],
  "bytecode": "0x60806040523480156200001157600080fd5b5060405162001aef38038062001aef8339818101604052810190620000379190620001f4565b80600073ffffffffffffffffffffffffffffffffffffffff168173ffffffffffffffffffffffffffffffffffffffff1603620000ad5760006040517f1e4fbdf7000000000000000000000000000000000000000000000000000000008152600401620000a4919062000237565b60405180910390fd5b620000be81620000c660201b60201c565b505062000254565b60008060009054906101000a900473ffffffffffffffffffffffffffffffffffffffff169050816000806101000a81548173ffffffffffffffffffffffffffffffffffffffff021916908373ffffffffffffffffffffffffffffffffffffffff1602179055508173ffffffffffffffffffffffffffffffffffffffff168173ffffffffffffffffffffffffffffffffffffffff167f8be0079c531659141344cd1fd0a4f28419497f9722a3daafe3b4186f6b6457e060405160405180910390a35050565b600080fd5b600073ffffffffffffffffffffffffffffffffffffffff82169050919050565b6000620001bc826200018f565b9050919050565b620001ce81620001af565b8114620001da57600080fd5b50565b600081519050620001ee81620001c3565b92915050565b6000602082840312156200020d576200020c6200018a565b5b60006200021d84828501620001dd565b91505092915050565b6200023181620001af565b82525050565b60006020820190506200024e600083018462000226565b92915050565b61188b80620002646000396000f3fe608060405234801561001057600080fd5b506004361061009e5760003560e01c8063b43023a511610066578063b43023a51461013b578063b84a29031461016b578063bbfbd51d14610187578063ec38d5a0146101b7578063f2fde38b146101ec5761009e565b80630b791430146100a35780633c95956e146100d95780637084698c146100f5578063715018a6146101135780638da5cb5b1461011d575b600080fd5b6100bd60048036038101906100b89190610cff565b610208565b6040516100d09796959493929190610e27565b60405180910390f35b6100f360048036038101906100ee9190610ec9565b6102ff565b005b6100fd6104ae565b60405161010a9190610f1c565b60405180910390f35b61011b6104b8565b005b6101256104cc565b6040516101329190610f37565b60405180910390f35b610155600480360381019061015091906110b3565b6104f5565b6040516101629190610f1c565b60405180910390f35b6101856004803603810190610180919061114a565b6106de565b005b6101a1600480360381019061019c919061118a565b610842565b6040516101ae9190610f37565b60405180910390f35b6101d160048036038101906101cc9190610cff565b61093a565b6040516101e3969594939291906111ca565b60405180910390f35b61020660048036038101906102019190611232565b610adc565b005b60026020528060005260406000206000915090508060000154908060010180546102319061128e565b80601f016020809104026020016040519081016040528092919081815260200182805461025d9061128e565b80156102aa5780601f1061027f576101008083540402835291602001916102aa565b820191906000526020600020905b81548152906001019060200180831161028d57829003601f168201915b5050505050908060020160009054906101000a900473ffffffffffffffffffffffffffffffffffffffff16908060030154908060040154908060050154908060060160009054906101000a900460ff16905087565b6000600260008581526020019081526020016000209050600073ffffffffffffffffffffffffffffffffffffffff168160020160009054906101000a900473ffffffffffffffffffffffffffffffffffffffff1673ffffffffffffffffffffffffffffffffffffffff16036103ab57836040517f86666d5b0000000000000000000000000000000000000000000000000000000081526004016103a29190610f1c565b60405180910390fd5b80600401548160050154106103f5576040517f08c379a00000000000000000000000000000000000000000000000000000000081526004016103ec90611331565b60405180910390fd5b80600501600081548092919061040a90611380565b91905055508181600701600085815260200190815260200160002060006101000a81548173ffffffffffffffffffffffffffffffffffffffff021916908373ffffffffffffffffffffffffffffffffffffffff1602179055508173ffffffffffffffffffffffffffffffffffffffff1683857f2c8b8463c148da5f49cc24ddcae8b7900c37697d307d68ca426d19b8a9ff2f6560405160405180910390a450505050565b6000600154905090565b6104c0610b62565b6104ca6000610be9565b565b60008060009054906101000a900473ffffffffffffffffffffffffffffffffffffffff16905090565b60006104ff610b62565b600073ffffffffffffffffffffffffffffffffffffffff168573ffffffffffffffffffffffffffffffffffffffff160361056e576040517f08c379a00000000000000000000000000000000000000000000000000000000081526004016105659061143a565b60405180910390fd5b600083116105b1576040517f08c379a00000000000000000000000000000000000000000000000000000000081526004016105a8906114cc565b60405180910390fd5b60006001549050600160008154809291906105cb90611380565b91905055506000600260008381526020019081526020016000209050818160000181905550878160010190816106019190611698565b50868160020160006101000a81548173ffffffffffffffffffffffffffffffffffffffff021916908373ffffffffffffffffffffffffffffffffffffffff16021790555085816003018190555084816004018190555060008160050181905550838160060160006101000a81548160ff0219169083151502179055508673ffffffffffffffffffffffffffffffffffffffff16827f81f945738beff591c3eab232e9f3265ce3f12263a2ec7acf84db8dc0fce26a278a89896040516106c89392919061176a565b60405180910390a3819250505095945050505050565b6106e6610b62565b6000600260008481526020019081526020016000209050600073ffffffffffffffffffffffffffffffffffffffff168160020160009054906101000a900473ffffffffffffffffffffffffffffffffffffffff1673ffffffffffffffffffffffffffffffffffffffff160361079257826040517f86666d5b0000000000000000000000000000000000000000000000000000000081526004016107899190610f1c565b60405180910390fd5b8115158160060160009054906101000a900460ff161515036107e9576040517fa17438320000000000000000000000000000000000000000000000000000000081526004016107e09061181a565b60405180910390fd5b818160060160006101000a81548160ff021916908315150217905550827fb2bc5d7509f733d56ab7e45b3eacfbec4e497ae2863122195501d98ea897b4da83604051610835919061183a565b60405180910390a2505050565b60008073ffffffffffffffffffffffffffffffffffffffff166002600085815260200190815260200160002060020160009054906101000a900473ffffffffffffffffffffffffffffffffffffffff1673ffffffffffffffffffffffffffffffffffffffff16036108ea57826040517f86666d5b0000000000000000000000000000000000000000000000000000000081526004016108e19190610f1c565b60405180910390fd5b60026000848152602001908152602001600020600701600083815260200190815260200160002060009054906101000a900473ffffffffffffffffffffffffffffffffffffffff16905092915050565b600080600080600060606000600260008981526020019081526020016000209050600073ffffffffffffffffffffffffffffffffffffffff168160020160009054906101000a900473ffffffffffffffffffffffffffffffffffffffff1673ffffffffffffffffffffffffffffffffffffffff16036109f057876040517f86666d5b0000000000000000000000000000000000000000000000000000000081526004016109e79190610f1c565b60405180910390fd5b8060020160009054906101000a900473ffffffffffffffffffffffffffffffffffffffff168160030154826004015483600501548460060160009054906101000a900460ff1685600101808054610a469061128e565b80601f0160208091040260200160405190810160405280929190818152602001828054610a729061128e565b8015610abf5780601f10610a9457610100808354040283529160200191610abf565b820191906000526020600020905b815481529060010190602001808311610aa257829003601f168201915b505050505090509650965096509650965096505091939550919395565b610ae4610b62565b600073ffffffffffffffffffffffffffffffffffffffff168173ffffffffffffffffffffffffffffffffffffffff1603610b565760006040517f1e4fbdf7000000000000000000000000000000000000000000000000000000008152600401610b4d9190610f37565b60405180910390fd5b610b5f81610be9565b50565b610b6a610cad565b73ffffffffffffffffffffffffffffffffffffffff16610b886104cc565b73ffffffffffffffffffffffffffffffffffffffff1614610be757610bab610cad565b6040517f118cdaa7000000000000000000000000000000000000000000000000000000008152600401610bde9190610f37565b60405180910390fd5b565b60008060009054906101000a900473ffffffffffffffffffffffffffffffffffffffff169050816000806101000a81548173ffffffffffffffffffffffffffffffffffffffff021916908373ffffffffffffffffffffffffffffffffffffffff1602179055508173ffffffffffffffffffffffffffffffffffffffff168173ffffffffffffffffffffffffffffffffffffffff167f8be0079c531659141344cd1fd0a4f28419497f9722a3daafe3b4186f6b6457e060405160405180910390a35050565b600033905090565b6000604051905090565b600080fd5b600080fd5b6000819050919050565b610cdc81610cc9565b8114610ce757600080fd5b50565b600081359050610cf981610cd3565b92915050565b600060208284031215610d1557610d14610cbf565b5b6000610d2384828501610cea565b91505092915050565b610d3581610cc9565b82525050565b600081519050919050565b600082825260208201905092915050565b60005b83811015610d75578082015181840152602081019050610d5a565b60008484015250505050565b6000601f19601f8301169050919050565b6000610d9d82610d3b565b610da78185610d46565b9350610db7818560208601610d57565b610dc081610d81565b840191505092915050565b600073ffffffffffffffffffffffffffffffffffffffff82169050919050565b6000610df682610dcb565b9050919050565b610e0681610deb565b82525050565b60008115159050919050565b610e2181610e0c565b82525050565b600060e082019050610e3c600083018a610d2c565b8181036020830152610e4e8189610d92565b9050610e5d6040830188610dfd565b610e6a6060830187610d2c565b610e776080830186610d2c565b610e8460a0830185610d2c565b610e9160c0830184610e18565b98975050505050505050565b610ea681610deb565b8114610eb157600080fd5b50565b600081359050610ec381610e9d565b92915050565b600080600060608486031215610ee257610ee1610cbf565b5b6000610ef086828701610cea565b9350506020610f0186828701610cea565b9250506040610f1286828701610eb4565b9150509250925092565b6000602082019050610f316000830184610d2c565b92915050565b6000602082019050610f4c6000830184610dfd565b92915050565b600080fd5b600080fd5b7f4e487b7100000000000000000000000000000000000000000000000000000000600052604160045260246000fd5b610f9482610d81565b810181811067ffffffffffffffff82111715610fb357610fb2610f5c565b5b80604052505050565b6000610fc6610cb5565b9050610fd28282610f8b565b919050565b600067ffffffffffffffff821115610ff257610ff1610f5c565b5b610ffb82610d81565b9050602081019050919050565b82818337600083830152505050565b600061102a61102584610fd7565b610fbc565b90508281526020810184848401111561104657611045610f57565b5b611051848285611008565b509392505050565b600082601f83011261106e5761106d610f52565b5b813561107e848260208601611017565b91505092915050565b61109081610e0c565b811461109b57600080fd5b50565b6000813590506110ad81611087565b92915050565b600080600080600060a086880312156110cf576110ce610cbf565b5b600086013567ffffffffffffffff8111156110ed576110ec610cc4565b5b6110f988828901611059565b955050602061110a88828901610eb4565b945050604061111b88828901610cea565b935050606061112c88828901610cea565b925050608061113d8882890161109e565b9150509295509295909350565b6000806040838503121561116157611160610cbf565b5b600061116f85828601610cea565b92505060206111808582860161109e565b9150509250929050565b600080604083850312156111a1576111a0610cbf565b5b60006111af85828601610cea565b92505060206111c085828601610cea565b9150509250929050565b600060c0820190506111df6000830189610dfd565b6111ec6020830188610d2c565b6111f96040830187610d2c565b6112066060830186610d2c565b6112136080830185610e18565b81810360a08301526112258184610d92565b9050979650505050505050565b60006020828403121561124857611247610cbf565b5b600061125684828501610eb4565b91505092915050565b7f4e487b7100000000000000000000000000000000000000000000000000000000600052602260045260246000fd5b600060028204905060018216806112a657607f821691505b6020821081036112b9576112b861125f565b5b50919050565b7f4576656e7452656769737472793a204576656e7420616c726561647920736f6c60008201527f64206f7574000000000000000000000000000000000000000000000000000000602082015250565b600061131b602583610d46565b9150611326826112bf565b604082019050919050565b6000602082019050818103600083015261134a8161130e565b9050919050565b7f4e487b7100000000000000000000000000000000000000000000000000000000600052601160045260246000fd5b600061138b82610cc9565b91507fffffffffffffffffffffffffffffffffffffffffffffffffffffffffffffffff82036113bd576113bc611351565b5b600182019050919050565b7f4576656e7452656769737472793a204f7267616e697a65722063616e6e6f742060008201527f6265207a65726f20616464726573730000000000000000000000000000000000602082015250565b6000611424602f83610d46565b915061142f826113c8565b604082019050919050565b6000602082019050818103600083015261145381611417565b9050919050565b7f4576656e7452656769737472793a204d617820737570706c79206d757374206260008201527f652067726561746572207468616e207a65726f00000000000000000000000000602082015250565b60006114b6603383610d46565b91506114c18261145a565b604082019050919050565b600060208201905081810360008301526114e5816114a9565b9050919050565b60008190508160005260206000209050919050565b60006020601f8301049050919050565b600082821b905092915050565b60006008830261154e7fffffffffffffffffffffffffffffffffffffffffffffffffffffffffffffffff82611511565b6115588683611511565b95508019841693508086168417925050509392505050565b6000819050919050565b600061159561159061158b84610cc9565b611570565b610cc9565b9050919050565b6000819050919050565b6115af8361157a565b6115c36115bb8261159c565b84845461151e565b825550505050565b600090565b6115d86115cb565b6115e38184846115a6565b505050565b5b81811015611607576115fc6000826115d0565b6001810190506115e9565b5050565b601f82111561164c5761161d816114ec565b61162684611501565b81016020851015611635578190505b61164961164185611501565b8301826115e8565b50505b505050565b600082821c905092915050565b600061166f60001984600802611651565b1980831691505092915050565b6000611688838361165e565b9150826002028217905092915050565b6116a182610d3b565b67ffffffffffffffff8111156116ba576116b9610f5c565b5b6116c4825461128e565b6116cf82828561160b565b600060209050601f83116001811461170257600084156116f0578287015190505b6116fa858261167c565b865550611762565b601f198416611710866114ec565b60005b8281101561173857848901518255600182019150602085019450602081019050611713565b868310156117555784890151611751601f89168261165e565b8355505b6001600288020188555050505b505050505050565b600060608201905081810360008301526117848186610d92565b90506117936020830185610d2c565b6117a06040830184610d2c565b949350505050565b7f53746174757320697320616c72656164792073657420746f207468652064657360008201527f697265642076616c756500000000000000000000000000000000000000000000602082015250565b6000611804602a83610d46565b915061180f826117a8565b604082019050919050565b60006020820190508181036000830152611833816117f7565b9050919050565b600060208201905061184f6000830184610e18565b9291505056fea26469706673582212205e9cd7b2125738296672ae504d66ce1edfd05b5f428b2e57c608b9fb3dcbba8a64736f6c63430008140033",
  "linkReferences": {},
  "deployedLinkReferences": {}
}