{
  "_format": "hh-sol-artifact-1",
  "contractName": "PaymentHandler",
  "sourceName": "contracts/PaymentHandler.sol",
  "abi": [
    {
      "inputs": [
        {
          "internalType": "address",
          "name": "_initialOwner",
          "type": "address"
        },
        {
          "internalType": "address",
          "name": "_ticketNFTAddress",
          "type": "address"
        },
        {
          "internalType": "address",
          "name": "_usdcTokenAddress",
          "type": "address"
        },
        {
          "internalType": "address",
          "name": "_eventRegistryAddress",
          "type": "address"
        }
      ],
      "stateMutability": "nonpayable",
      "type": "constructor"
    },
    {
      "inputs": [
        {
          "internalType": "uint256",
          "name": "eventId",
          "type": "uint256"
        }
      ],
      "name": "EventNotActive",
      "type": "error"
    },
    {
      "inputs": [
        {
          "internalType": "uint256",
          "name": "eventId",
          "type": "uint256"
        }
      ],
      "name": "EventSoldOut",
      "type": "error"
    },
    {
      "inputs": [
        {
          "internalType": "address",
          "name": "owner",
          "type": "address"
        },
        {
          "internalType": "address",
          "name": "spender",
          "type": "address"
        },
        {
          "internalType": "uint256",
          "name": "required",
          "type": "uint256"
        },
        {
          "internalType": "uint256",
          "name": "allowed",
          "type": "uint256"
        }
      ],
      "name": "InsufficientAllowance",
      "type": "error"
    },
    {
      "inputs": [
        {
          "internalType": "uint256",
          "name": "eventId",
          "type": "uint256"
        }
      ],
      "name": "InvalidEvent",
      "type": "error"
    },
    {
      "inputs": [
        {
          "internalType": "address",
          "name": "owner",
          "type": "address"
        }
      ],
      "name": "OwnableInvalidOwner",
      "type": "error"
    },
    {
      "inputs": [
        {
          "internalType": "address",
          "name": "account",
          "type": "address"
        }
      ],
      "name": "OwnableUnauthorizedAccount",
      "type": "error"
    },
    {
      "inputs": [
        {
          "internalType": "string",
          "name": "reason",
          "type": "string"
        }
      ],
      "name": "PaymentFailed",
      "type": "error"
    },
    {
      "inputs": [
        {
          "internalType": "address",
          "name": "token",
          "type": "address"
        }
      ],
      "name": "SafeERC20FailedOperation",
      "type": "error"
    },
    {
      "anonymous": false,
      "inputs": [
        {
          "indexed": true,
          "internalType": "address",
          "name": "previousOwner",
          "type": "address"
        },
        {
          "indexed": true,
          "internalType": "address",
          "name": "newOwner",
          "type": "address"
        }
      ],
      "name": "OwnershipTransferred",
      "type": "event"
    },
    {
      "anonymous": false,
      "inputs": [
        {
          "indexed": true,
          "internalType": "uint256",
          "name": "eventId",
          "type": "uint256"
        },
        {
          "indexed": true,
          "internalType": "address",
          "name": "buyer",
          "type": "address"
        },
        {
          "indexed": true,
          "internalType": "address",
          "name": "recipient",
          "type": "address"
        },
        {
          "indexed": false,
          "internalType": "uint256",
          "name": "tokenId",
          "type": "uint256"
        },
        {
          "indexed": false,
          "internalType": "uint256",
          "name": "pricePaid",
          "type": "uint256"
        }
      ],
      "name": "TicketPurchased",
      "type": "event"
    },
    {
      "inputs": [],
      "name": "eventRegistryAddress",
      "outputs": [
        {
          "internalType": "address",
          "name": "",
          "type": "address"
        }
      ],
      "stateMutability": "view",
      "type": "function"
    },
    {
      "inputs": [],
      "name": "owner",
      "outputs": [
        {
          "internalType": "address",
          "name": "",
          "type": "address"
        }
      ],
      "stateMutability": "view",
      "type": "function"
    },
    {
      "inputs": [
        {
          "internalType": "uint256",
          "name": "eventId",
          "type": "uint256"
        },
        {
          "internalType": "address",
          "name": "recipient",
          "type": "address"
        },
        {
          "internalType": "string",
          "name": "tokenURI",
          "type": "string"
        }
      ],
      "name": "purchaseTicket",
      "outputs": [],
      "stateMutability": "payable",
      "type": "function"
    },
    {
      "inputs": [],
      "name": "renounceOwnership",
      "outputs": [],
      "stateMutability": "nonpayable",
      "type": "function"
    },
    {
      "inputs": [
        {
          "internalType": "address",
          "name": "_newRegistryAddress",
          "type": "address"
        }
      ],
      "name": "setEventRegistryAddress",
      "outputs": [],
      "stateMutability": "nonpayable",
      "type": "function"
    },
    {
      "inputs": [],
      "name": "ticketNFTAddress",
      "outputs": [
        {
          "internalType": "address",
          "name": "",
          "type": "address"
        }
      ],
      "stateMutability": "view",
      "type": "function"
    },
    {
      "inputs": [
        {
          "internalType": "address",
          "name": "newOwner",
          "type": "address"
        }
      ],
      "name": "transferOwnership",
      "outputs": [],
      "stateMutability": "nonpayable",
      "type": "function"
    },
    {
      "inputs": [],
      "name": "usdcTokenAddress",
      "outputs": [
        {
          "internalType": "address",
          "name": "",
          "type": "address"
        }
      ],
      "stateMutability": "view",
      "type": "function"
    },
    {
      "inputs": [
        {
          "internalType": "address",
          "name": "tokenAddress",
          "type": "address"
        },
        {
          "internalType": "uint256",
          "name": "amount",
          "type": "uint256"
        }
      ],
      "name": "withdrawERC20",
      "outputs": [],
      "stateMutability": "nonpayable",
      "type": "function"
    },
    {
      "inputs": [],
      "name": "withdrawETH",
      "outputs": [],
      "stateMutability": "nonpayable",
      "type": "function"
    }
  ],
  "bytecode": "0x60c06040523480156200001157600080fd5b5060405162001eaa38038062001eaa8339818101604052810190620000379190620003f6565b83600073ffffffffffffffffffffffffffffffffffffffff168173ffffffffffffffffffffffffffffffffffffffff1603620000ad5760006040517f1e4fbdf7000000000000000000000000000000000000000000000000000000008152600401620000a4919062000479565b60405180910390fd5b620000be81620002c860201b60201c565b50600073ffffffffffffffffffffffffffffffffffffffff168373ffffffffffffffffffffffffffffffffffffffff160362000131576040517f08c379a000000000000000000000000000000000000000000000000000000000815260040162000128906200051d565b60405180910390fd5b600073ffffffffffffffffffffffffffffffffffffffff168273ffffffffffffffffffffffffffffffffffffffff1603620001a3576040517f08c379a00000000000000000000000000000000000000000000000000000000081526004016200019a90620005b5565b60405180910390fd5b600073ffffffffffffffffffffffffffffffffffffffff168173ffffffffffffffffffffffffffffffffffffffff160362000215576040517f08c379a00000000000000000000000000000000000000000000000000000000081526004016200020c906200064d565b60405180910390fd5b8273ffffffffffffffffffffffffffffffffffffffff1660808173ffffffffffffffffffffffffffffffffffffffff16815250508173ffffffffffffffffffffffffffffffffffffffff1660a08173ffffffffffffffffffffffffffffffffffffffff168152505080600160006101000a81548173ffffffffffffffffffffffffffffffffffffffff021916908373ffffffffffffffffffffffffffffffffffffffff160217905550505050506200066f565b60008060009054906101000a900473ffffffffffffffffffffffffffffffffffffffff169050816000806101000a81548173ffffffffffffffffffffffffffffffffffffffff021916908373ffffffffffffffffffffffffffffffffffffffff1602179055508173ffffffffffffffffffffffffffffffffffffffff168173ffffffffffffffffffffffffffffffffffffffff167f8be0079c531659141344cd1fd0a4f28419497f9722a3daafe3b4186f6b6457e060405160405180910390a35050565b600080fd5b600073ffffffffffffffffffffffffffffffffffffffff82169050919050565b6000620003be8262000391565b9050919050565b620003d081620003b1565b8114620003dc57600080fd5b50565b600081519050620003f081620003c5565b92915050565b600080600080608085870312156200041357620004126200038c565b5b60006200042387828801620003df565b94505060206200043687828801620003df565b93505060406200044987828801620003df565b92505060606200045c87828801620003df565b91505092959194509250565b6200047381620003b1565b82525050565b600060208201905062000490600083018462000468565b92915050565b600082825260208201905092915050565b7f5061796d656e7448616e646c65723a20496e76616c6964205469636b65744e4660008201527f5420616464726573730000000000000000000000000000000000000000000000602082015250565b60006200050560298362000496565b91506200051282620004a7565b604082019050919050565b600060208201905081810360008301526200053881620004f6565b9050919050565b7f5061796d656e7448616e646c65723a20496e76616c696420555344432061646460008201527f7265737300000000000000000000000000000000000000000000000000000000602082015250565b60006200059d60248362000496565b9150620005aa826200053f565b604082019050919050565b60006020820190508181036000830152620005d0816200058e565b9050919050565b7f5061796d656e7448616e646c65723a20496e76616c6964204576656e7452656760008201527f6973747279206164647265737300000000000000000000000000000000000000602082015250565b600062000635602d8362000496565b91506200064282620005d7565b604082019050919050565b60006020820190508181036000830152620006688162000626565b9050919050565b60805160a051611807620006a36000396000818161049a01526108960152600081816105e2015261092701526118076000f3fe6080604052600436106100915760003560e01c80638da5cb5b116100595780638da5cb5b14610148578063a1db978214610173578063c77836f91461019c578063e086e5ec146101c7578063f2fde38b146101de57610091565b8063073f03fb146100965780632311ee4c146100c15780635583c2c2146100ea578063715018a61461010657806377b53ece1461011d575b600080fd5b3480156100a257600080fd5b506100ab610207565b6040516100b89190610dc4565b60405180910390f35b3480156100cd57600080fd5b506100e860048036038101906100e39190610e1f565b61022d565b005b61010460048036038101906100ff9190610fc8565b6102e8565b005b34801561011257600080fd5b5061011b610880565b005b34801561012957600080fd5b50610132610894565b60405161013f9190610dc4565b60405180910390f35b34801561015457600080fd5b5061015d6108b8565b60405161016a9190610dc4565b60405180910390f35b34801561017f57600080fd5b5061019a60048036038101906101959190611037565b6108e1565b005b3480156101a857600080fd5b506101b1610925565b6040516101be9190610dc4565b60405180910390f35b3480156101d357600080fd5b506101dc610949565b005b3480156101ea57600080fd5b5061020560048036038101906102009190610e1f565b610a07565b005b600160009054906101000a900473ffffffffffffffffffffffffffffffffffffffff1681565b610235610a8d565b600073ffffffffffffffffffffffffffffffffffffffff168173ffffffffffffffffffffffffffffffffffffffff16036102a4576040517f08c379a000000000000000000000000000000000000000000000000000000000815260040161029b906110fa565b60405180910390fd5b80600160006101000a81548173ffffffffffffffffffffffffffffffffffffffff021916908373ffffffffffffffffffffffffffffffffffffffff16021790555050565b6000600160009054906101000a900473ffffffffffffffffffffffffffffffffffffffff16905060008060008060008573ffffffffffffffffffffffffffffffffffffffff1663ec38d5a08a6040518263ffffffff1660e01b81526004016103509190611129565b600060405180830381865afa15801561036d573d6000803e3d6000fd5b505050506040513d6000823e3d601f19601f820116820180604052508101906103969190611240565b5094509450945094509450600073ffffffffffffffffffffffffffffffffffffffff168873ffffffffffffffffffffffffffffffffffffffff1603610410576040517f79c2168800000000000000000000000000000000000000000000000000000000815260040161040790611335565b60405180910390fd5b8061045257886040517f7b5d682f0000000000000000000000000000000000000000000000000000000081526004016104499190611129565b60405180910390fd5b82821061049657886040517f0291e1cc00000000000000000000000000000000000000000000000000000000815260040161048d9190611129565b60405180910390fd5b60007f0000000000000000000000000000000000000000000000000000000000000000905060008173ffffffffffffffffffffffffffffffffffffffff1663dd62ed3e33306040518363ffffffff1660e01b81526004016104f8929190611355565b602060405180830381865afa158015610515573d6000803e3d6000fd5b505050506040513d601f19601f82011682018060405250810190610539919061137e565b90508581101561058657333087836040517f91beda2400000000000000000000000000000000000000000000000000000000815260040161057d94939291906113ab565b60405180910390fd5b6105b33330888573ffffffffffffffffffffffffffffffffffffffff16610b14909392919063ffffffff16565b6105de87878473ffffffffffffffffffffffffffffffffffffffff16610b969092919063ffffffff16565b60007f0000000000000000000000000000000000000000000000000000000000000000905060008173ffffffffffffffffffffffffffffffffffffffff1663d204c45e8d8d6040518363ffffffff1660e01b8152600401610640929190611434565b6020604051808303816000875af192505050801561067c57506040513d601f19601f82011682018060405250810190610679919061137e565b60015b61079657610688611471565b806308c379a00361072e575061069c611493565b806106a75750610730565b6106d2338a8773ffffffffffffffffffffffffffffffffffffffff16610b969092919063ffffffff16565b806040516020016106e39190611585565b6040516020818303038152906040526040517f79c2168800000000000000000000000000000000000000000000000000000000815260040161072591906115ab565b60405180910390fd5b505b61075b33898673ffffffffffffffffffffffffffffffffffffffff16610b969092919063ffffffff16565b6040517f79c2168800000000000000000000000000000000000000000000000000000000815260040161078d90611619565b60405180910390fd5b809150508973ffffffffffffffffffffffffffffffffffffffff16633c95956e8e83336040518463ffffffff1660e01b81526004016107d793929190611639565b600060405180830381600087803b1580156107f157600080fd5b505af1158015610805573d6000803e3d6000fd5b505050508b73ffffffffffffffffffffffffffffffffffffffff163373ffffffffffffffffffffffffffffffffffffffff168e7f89e6ca2f242d70d37a78b236b53489a16452504b105396939ffa9ab4d2512b6c848c604051610869929190611670565b60405180910390a450505050505050505050505050565b610888610a8d565b6108926000610c15565b565b7f000000000000000000000000000000000000000000000000000000000000000081565b60008060009054906101000a900473ffffffffffffffffffffffffffffffffffffffff16905090565b6108e9610a8d565b60008290506109206108f96108b8565b838373ffffffffffffffffffffffffffffffffffffffff16610b969092919063ffffffff16565b505050565b7f000000000000000000000000000000000000000000000000000000000000000081565b610951610a8d565b600061095b6108b8565b73ffffffffffffffffffffffffffffffffffffffff164760405161097e906116ca565b60006040518083038185875af1925050503d80600081146109bb576040519150601f19603f3d011682016040523d82523d6000602084013e6109c0565b606091505b5050905080610a04576040517f08c379a00000000000000000000000000000000000000000000000000000000081526004016109fb90611751565b60405180910390fd5b50565b610a0f610a8d565b600073ffffffffffffffffffffffffffffffffffffffff168173ffffffffffffffffffffffffffffffffffffffff1603610a815760006040517f1e4fbdf7000000000000000000000000000000000000000000000000000000008152600401610a789190610dc4565b60405180910390fd5b610a8a81610c15565b50565b610a95610cd9565b73ffffffffffffffffffffffffffffffffffffffff16610ab36108b8565b73ffffffffffffffffffffffffffffffffffffffff1614610b1257610ad6610cd9565b6040517f118cdaa7000000000000000000000000000000000000000000000000000000008152600401610b099190610dc4565b60405180910390fd5b565b610b90848573ffffffffffffffffffffffffffffffffffffffff166323b872dd868686604051602401610b4993929190611771565b604051602081830303815290604052915060e01b6020820180517bffffffffffffffffffffffffffffffffffffffffffffffffffffffff8381831617835250505050610ce1565b50505050565b610c10838473ffffffffffffffffffffffffffffffffffffffff1663a9059cbb8585604051602401610bc99291906117a8565b604051602081830303815290604052915060e01b6020820180517bffffffffffffffffffffffffffffffffffffffffffffffffffffffff8381831617835250505050610ce1565b505050565b60008060009054906101000a900473ffffffffffffffffffffffffffffffffffffffff169050816000806101000a81548173ffffffffffffffffffffffffffffffffffffffff021916908373ffffffffffffffffffffffffffffffffffffffff1602179055508173ffffffffffffffffffffffffffffffffffffffff168173ffffffffffffffffffffffffffffffffffffffff167f8be0079c531659141344cd1fd0a4f28419497f9722a3daafe3b4186f6b6457e060405160405180910390a35050565b600033905090565b600080602060008451602086016000885af180610d04576040513d6000823e3d81fd5b3d925060005191505060008214610d1f576001811415610d3b565b60008473ffffffffffffffffffffffffffffffffffffffff163b145b15610d7d57836040517f5274afe7000000000000000000000000000000000000000000000000000000008152600401610d749190610dc4565b60405180910390fd5b50505050565b600073ffffffffffffffffffffffffffffffffffffffff82169050919050565b6000610dae82610d83565b9050919050565b610dbe81610da3565b82525050565b6000602082019050610dd96000830184610db5565b92915050565b6000604051905090565b600080fd5b600080fd5b610dfc81610da3565b8114610e0757600080fd5b50565b600081359050610e1981610df3565b92915050565b600060208284031215610e3557610e34610de9565b5b6000610e4384828501610e0a565b91505092915050565b6000819050919050565b610e5f81610e4c565b8114610e6a57600080fd5b50565b600081359050610e7c81610e56565b92915050565b600080fd5b600080fd5b6000601f19601f8301169050919050565b7f4e487b7100000000000000000000000000000000000000000000000000000000600052604160045260246000fd5b610ed582610e8c565b810181811067ffffffffffffffff82111715610ef457610ef3610e9d565b5b80604052505050565b6000610f07610ddf565b9050610f138282610ecc565b919050565b600067ffffffffffffffff821115610f3357610f32610e9d565b5b610f3c82610e8c565b9050602081019050919050565b82818337600083830152505050565b6000610f6b610f6684610f18565b610efd565b905082815260208101848484011115610f8757610f86610e87565b5b610f92848285610f49565b509392505050565b600082601f830112610faf57610fae610e82565b5b8135610fbf848260208601610f58565b91505092915050565b600080600060608486031215610fe157610fe0610de9565b5b6000610fef86828701610e6d565b935050602061100086828701610e0a565b925050604084013567ffffffffffffffff81111561102157611020610dee565b5b61102d86828701610f9a565b9150509250925092565b6000806040838503121561104e5761104d610de9565b5b600061105c85828601610e0a565b925050602061106d85828601610e6d565b9150509250929050565b600082825260208201905092915050565b7f5061796d656e7448616e646c65723a20496e76616c6964204576656e7452656760008201527f6973747279206164647265737300000000000000000000000000000000000000602082015250565b60006110e4602d83611077565b91506110ef82611088565b604082019050919050565b60006020820190508181036000830152611113816110d7565b9050919050565b61112381610e4c565b82525050565b600060208201905061113e600083018461111a565b92915050565b60008151905061115381610df3565b92915050565b60008151905061116881610e56565b92915050565b60008115159050919050565b6111838161116e565b811461118e57600080fd5b50565b6000815190506111a08161117a565b92915050565b60005b838110156111c45780820151818401526020810190506111a9565b60008484015250505050565b60006111e36111de84610f18565b610efd565b9050828152602081018484840111156111ff576111fe610e87565b5b61120a8482856111a6565b509392505050565b600082601f83011261122757611226610e82565b5b81516112378482602086016111d0565b91505092915050565b60008060008060008060c0878903121561125d5761125c610de9565b5b600061126b89828a01611144565b965050602061127c89828a01611159565b955050604061128d89828a01611159565b945050606061129e89828a01611159565b93505060806112af89828a01611191565b92505060a087015167ffffffffffffffff8111156112d0576112cf610dee565b5b6112dc89828a01611212565b9150509295509295509295565b7f526563697069656e742063616e6e6f74206265207a65726f2061646472657373600082015250565b600061131f602083611077565b915061132a826112e9565b602082019050919050565b6000602082019050818103600083015261134e81611312565b9050919050565b600060408201905061136a6000830185610db5565b6113776020830184610db5565b9392505050565b60006020828403121561139457611393610de9565b5b60006113a284828501611159565b91505092915050565b60006080820190506113c06000830187610db5565b6113cd6020830186610db5565b6113da604083018561111a565b6113e7606083018461111a565b95945050505050565b600081519050919050565b6000611406826113f0565b6114108185611077565b93506114208185602086016111a6565b61142981610e8c565b840191505092915050565b60006040820190506114496000830185610db5565b818103602083015261145b81846113fb565b90509392505050565b60008160e01c9050919050565b600060033d11156114905760046000803e61148d600051611464565b90505b90565b600060443d10611520576114a5610ddf565b60043d036004823e80513d602482011167ffffffffffffffff821117156114cd575050611520565b808201805167ffffffffffffffff8111156114eb5750505050611520565b80602083010160043d038501811115611508575050505050611520565b61151782602001850186610ecc565b82955050505050505b90565b7f4e4654206d696e74696e67206661696c65643a20000000000000000000000000815250565b600081905092915050565b600061155f826113f0565b6115698185611549565b93506115798185602086016111a6565b80840191505092915050565b600061159082611523565b6014820191506115a08284611554565b915081905092915050565b600060208201905081810360008301526115c581846113fb565b905092915050565b7f4e4654206d696e74696e67206661696c65640000000000000000000000000000600082015250565b6000611603601283611077565b915061160e826115cd565b602082019050919050565b60006020820190508181036000830152611632816115f6565b9050919050565b600060608201905061164e600083018661111a565b61165b602083018561111a565b6116686040830184610db5565b949350505050565b6000604082019050611685600083018561111a565b611692602083018461111a565b9392505050565b600081905092915050565b50565b60006116b4600083611699565b91506116bf826116a4565b600082019050919050565b60006116d5826116a7565b9150819050919050565b7f5061796d656e7448616e646c65723a20455448207769746864726177616c206660008201527f61696c6564000000000000000000000000000000000000000000000000000000602082015250565b600061173b602583611077565b9150611746826116df565b604082019050919050565b6000602082019050818103600083015261176a8161172e565b9050919050565b60006060820190506117866000830186610db5565b6117936020830185610db5565b6117a0604083018461111a565b949350505050565b60006040820190506117bd6000830185610db5565b6117ca602083018461111a565b939250505056fea2646970667358221220ec6cd728256015f23ffb8869608439d1b2baa81dd3ecc1af9a0d4aaaad3ca62f64736f6c63430008140033",
  "linkReferences": {},
  "deployedLinkReferences": {}
}